{
  "contractName": "BluezelleOracle",
  "abi": [
    {
      "anonymous": false,
      "inputs": [
        {
          "indexed": false,
          "internalType": "address",
          "name": "callerAddress",
          "type": "address"
        },
        {
          "indexed": false,
          "internalType": "uint256",
          "name": "id",
          "type": "uint256"
        },
        {
          "indexed": false,
          "internalType": "uint256",
          "name": "uuid",
          "type": "uint256"
        },
        {
          "indexed": false,
          "internalType": "string",
          "name": "key",
          "type": "string"
        }
      ],
      "name": "GetDBValueEvent",
      "type": "event"
    },
    {
      "anonymous": false,
      "inputs": [
        {
          "indexed": false,
          "internalType": "address",
          "name": "callerAddress",
          "type": "address"
        },
        {
          "indexed": false,
          "internalType": "uint256",
          "name": "id",
          "type": "uint256"
        },
        {
          "indexed": false,
          "internalType": "string",
          "name": "pair1",
          "type": "string"
        },
        {
          "indexed": false,
          "internalType": "string",
          "name": "pair2",
          "type": "string"
        }
      ],
      "name": "GetOracleValueEvent",
      "type": "event"
    },
    {
      "anonymous": false,
      "inputs": [
        {
          "indexed": true,
          "internalType": "address",
          "name": "previousOwner",
          "type": "address"
        },
        {
          "indexed": true,
          "internalType": "address",
          "name": "newOwner",
          "type": "address"
        }
      ],
      "name": "OwnershipTransferred",
      "type": "event"
    },
    {
      "inputs": [],
      "name": "owner",
      "outputs": [
        {
          "internalType": "address",
          "name": "",
          "type": "address"
        }
      ],
      "stateMutability": "view",
      "type": "function"
    },
    {
      "inputs": [],
      "name": "renounceOwnership",
      "outputs": [],
      "stateMutability": "nonpayable",
      "type": "function"
    },
    {
      "inputs": [
        {
          "internalType": "address",
          "name": "newOwner",
          "type": "address"
        }
      ],
      "name": "transferOwnership",
      "outputs": [],
      "stateMutability": "nonpayable",
      "type": "function"
    },
    {
      "inputs": [
        {
          "internalType": "string",
          "name": "pair1",
          "type": "string"
        },
        {
          "internalType": "string",
          "name": "pair2",
          "type": "string"
        }
      ],
      "name": "getOracleValue",
      "outputs": [
        {
          "internalType": "uint256",
          "name": "",
          "type": "uint256"
        }
      ],
      "stateMutability": "nonpayable",
      "type": "function"
    },
    {
      "inputs": [
        {
          "internalType": "uint256",
          "name": "uuid",
          "type": "uint256"
        },
        {
          "internalType": "string",
          "name": "key",
          "type": "string"
        }
      ],
      "name": "getDBValue",
      "outputs": [
        {
          "internalType": "uint256",
          "name": "",
          "type": "uint256"
        }
      ],
      "stateMutability": "nonpayable",
      "type": "function"
    },
    {
      "inputs": [
        {
          "internalType": "uint256",
          "name": "_latestPrice",
          "type": "uint256"
        },
        {
          "internalType": "address",
          "name": "_callerAddress",
          "type": "address"
        },
        {
          "internalType": "uint256",
          "name": "_id",
          "type": "uint256"
        }
      ],
      "name": "setOracleValue",
      "outputs": [],
      "stateMutability": "nonpayable",
      "type": "function"
    },
    {
      "inputs": [
        {
          "internalType": "string",
          "name": "_value",
          "type": "string"
        },
        {
          "internalType": "address",
          "name": "_callerAddress",
          "type": "address"
        },
        {
          "internalType": "uint256",
          "name": "_id",
          "type": "uint256"
        }
      ],
      "name": "setDBValue",
      "outputs": [],
      "stateMutability": "nonpayable",
      "type": "function"
    }
  ],
  "bytecode": "0x60806040526000600155620186a060025534801561001c57600080fd5b5061003961002e61003e60201b60201c565b61004660201b60201c565b61010a565b600033905090565b60008060009054906101000a900473ffffffffffffffffffffffffffffffffffffffff169050816000806101000a81548173ffffffffffffffffffffffffffffffffffffffff021916908373ffffffffffffffffffffffffffffffffffffffff1602179055508173ffffffffffffffffffffffffffffffffffffffff168173ffffffffffffffffffffffffffffffffffffffff167f8be0079c531659141344cd1fd0a4f28419497f9722a3daafe3b4186f6b6457e060405160405180910390a35050565b610f42806101196000396000f3fe608060405234801561001057600080fd5b506004361061007d5760003560e01c80638da5cb5b1161005b5780638da5cb5b146100c45780639fa45c1d146100e2578063b6b8e10014610112578063f2fde38b146101425761007d565b806341d1b109146100825780634f4b37081461009e578063715018a6146100ba575b600080fd5b61009c600480360381019061009791906108a4565b61015e565b005b6100b860048036038101906100b39190610985565b6102da565b005b6100c2610453565b005b6100cc6104db565b6040516100d99190610bc8565b60405180910390f35b6100fc60048036038101906100f791906109d4565b610504565b6040516101099190610d1a565b60405180910390f35b61012c60048036038101906101279190610910565b61055b565b6040516101399190610d1a565b60405180910390f35b61015c6004803603810190610157919061087b565b6105b5565b005b6101666106ad565b73ffffffffffffffffffffffffffffffffffffffff166101846104db565b73ffffffffffffffffffffffffffffffffffffffff16146101da576040517f08c379a00000000000000000000000000000000000000000000000000000000081526004016101d190610cfa565b60405180910390fd5b806003600082815260200190815260200160002060009054906101000a900460ff1661023b576040517f08c379a000000000000000000000000000000000000000000000000000000000815260040161023290610cba565b60405180910390fd5b6003600083815260200190815260200160002060006101000a81549060ff021916905560008390508073ffffffffffffffffffffffffffffffffffffffff16630f2499e68787866040518463ffffffff1660e01b81526004016102a093929190610c88565b600060405180830381600087803b1580156102ba57600080fd5b505af11580156102ce573d6000803e3d6000fd5b50505050505050505050565b6102e26106ad565b73ffffffffffffffffffffffffffffffffffffffff166103006104db565b73ffffffffffffffffffffffffffffffffffffffff1614610356576040517f08c379a000000000000000000000000000000000000000000000000000000000815260040161034d90610cfa565b60405180910390fd5b806003600082815260200190815260200160002060009054906101000a900460ff166103b7576040517f08c379a00000000000000000000000000000000000000000000000000000000081526004016103ae90610cba565b60405180910390fd5b6003600083815260200190815260200160002060006101000a81549060ff021916905560008390508073ffffffffffffffffffffffffffffffffffffffff1663f6ca6b7186856040518363ffffffff1660e01b815260040161041a929190610d35565b600060405180830381600087803b15801561043457600080fd5b505af1158015610448573d6000803e3d6000fd5b505050505050505050565b61045b6106ad565b73ffffffffffffffffffffffffffffffffffffffff166104796104db565b73ffffffffffffffffffffffffffffffffffffffff16146104cf576040517f08c379a00000000000000000000000000000000000000000000000000000000081526004016104c690610cfa565b60405180910390fd5b6104d960006106b5565b565b60008060009054906101000a900473ffffffffffffffffffffffffffffffffffffffff16905090565b60008061050f610779565b90507f2fbb4c252ab1056f140f014662e8d11c180a44715f91fc4bd964569b333804d83382878787604051610548959493929190610c3a565b60405180910390a1809150509392505050565b600080610566610779565b90507f55c46cfa084c68d00b2f8b268405d000f93294d39280338dc311c0ffd86155323382888888886040516105a196959493929190610be3565b60405180910390a180915050949350505050565b6105bd6106ad565b73ffffffffffffffffffffffffffffffffffffffff166105db6104db565b73ffffffffffffffffffffffffffffffffffffffff1614610631576040517f08c379a000000000000000000000000000000000000000000000000000000000815260040161062890610cfa565b60405180910390fd5b600073ffffffffffffffffffffffffffffffffffffffff168173ffffffffffffffffffffffffffffffffffffffff1614156106a1576040517f08c379a000000000000000000000000000000000000000000000000000000000815260040161069890610cda565b60405180910390fd5b6106aa816106b5565b50565b600033905090565b60008060009054906101000a900473ffffffffffffffffffffffffffffffffffffffff169050816000806101000a81548173ffffffffffffffffffffffffffffffffffffffff021916908373ffffffffffffffffffffffffffffffffffffffff1602179055508173ffffffffffffffffffffffffffffffffffffffff168173ffffffffffffffffffffffffffffffffffffffff167f8be0079c531659141344cd1fd0a4f28419497f9722a3daafe3b4186f6b6457e060405160405180910390a35050565b60006001600081548092919061078e90610dba565b9190505550600060025442336001546040516020016107af93929190610b8b565b6040516020818303038152906040528051906020012060001c6107d29190610e31565b905060016003600083815260200190815260200160002060006101000a81548160ff0219169083151502179055508091505090565b60008135905061081681610ede565b92915050565b60008083601f84011261082e57600080fd5b8235905067ffffffffffffffff81111561084757600080fd5b60208301915083600182028301111561085f57600080fd5b9250929050565b60008135905061087581610ef5565b92915050565b60006020828403121561088d57600080fd5b600061089b84828501610807565b91505092915050565b600080600080606085870312156108ba57600080fd5b600085013567ffffffffffffffff8111156108d457600080fd5b6108e08782880161081c565b945094505060206108f387828801610807565b925050604061090487828801610866565b91505092959194509250565b6000806000806040858703121561092657600080fd5b600085013567ffffffffffffffff81111561094057600080fd5b61094c8782880161081c565b9450945050602085013567ffffffffffffffff81111561096b57600080fd5b6109778782880161081c565b925092505092959194509250565b60008060006060848603121561099a57600080fd5b60006109a886828701610866565b93505060206109b986828701610807565b92505060406109ca86828701610866565b9150509250925092565b6000806000604084860312156109e957600080fd5b60006109f786828701610866565b935050602084013567ffffffffffffffff811115610a1457600080fd5b610a208682870161081c565b92509250509250925092565b610a3581610d6f565b82525050565b610a4c610a4782610d6f565b610e03565b82525050565b6000610a5e8385610d5e565b9350610a6b838584610dab565b610a7483610ec0565b840190509392505050565b6000610a8c601b83610d5e565b91507f52657175657374206e6f7420696e2070656e64696e67206c69737400000000006000830152602082019050919050565b6000610acc602683610d5e565b91507f4f776e61626c653a206e6577206f776e657220697320746865207a65726f206160008301527f64647265737300000000000000000000000000000000000000000000000000006020830152604082019050919050565b6000610b32602083610d5e565b91507f4f776e61626c653a2063616c6c6572206973206e6f7420746865206f776e65726000830152602082019050919050565b610b6e81610da1565b82525050565b610b85610b8082610da1565b610e27565b82525050565b6000610b978286610b74565b602082019150610ba78285610a3b565b601482019150610bb78284610b74565b602082019150819050949350505050565b6000602082019050610bdd6000830184610a2c565b92915050565b6000608082019050610bf86000830189610a2c565b610c056020830188610b65565b8181036040830152610c18818688610a52565b90508181036060830152610c2d818486610a52565b9050979650505050505050565b6000608082019050610c4f6000830188610a2c565b610c5c6020830187610b65565b610c696040830186610b65565b8181036060830152610c7c818486610a52565b90509695505050505050565b60006040820190508181036000830152610ca3818587610a52565b9050610cb26020830184610b65565b949350505050565b60006020820190508181036000830152610cd381610a7f565b9050919050565b60006020820190508181036000830152610cf381610abf565b9050919050565b60006020820190508181036000830152610d1381610b25565b9050919050565b6000602082019050610d2f6000830184610b65565b92915050565b6000604082019050610d4a6000830185610b65565b610d576020830184610b65565b9392505050565b600082825260208201905092915050565b6000610d7a82610d81565b9050919050565b600073ffffffffffffffffffffffffffffffffffffffff82169050919050565b6000819050919050565b82818337600083830152505050565b6000610dc582610da1565b91507fffffffffffffffffffffffffffffffffffffffffffffffffffffffffffffffff821415610df857610df7610e62565b5b600182019050919050565b6000610e0e82610e15565b9050919050565b6000610e2082610ed1565b9050919050565b6000819050919050565b6000610e3c82610da1565b9150610e4783610da1565b925082610e5757610e56610e91565b5b828206905092915050565b7f4e487b7100000000000000000000000000000000000000000000000000000000600052601160045260246000fd5b7f4e487b7100000000000000000000000000000000000000000000000000000000600052601260045260246000fd5b6000601f19601f8301169050919050565b60008160601b9050919050565b610ee781610d6f565b8114610ef257600080fd5b50565b610efe81610da1565b8114610f0957600080fd5b5056fea264697066735822122016bce4be418a4a81cc973159423bf801c76726ab7c5c63d03599a439b0bf5b0664736f6c63430008000033",
  "immutableReferences": {},
  "source": "//SPDX-License-Identifier: GPL 3\npragma solidity ^0.8.0;\n\nimport \"./dependencies/Ownable.sol\";\nimport \"./interfaces/ICallerContract.sol\";\n\n// TODO:\n// the strings that I have used are actually bytes32 values\n// but the real values will be pretty small right, like \"usdt\" \"btc\", etc.\n// so put a bytes___ (like bytes12 or maybe bytes8, etc.) value instead of string. figure out which one will be the best\n\ncontract BluezelleOracle is Ownable {\n  uint private randNonce = 0;\n  uint private modulus = 100000;\n  mapping(uint256=>bool) pendingRequests;\n\n  event GetOracleValueEvent(address callerAddress, uint id, string pair1, string pair2);\n  event GetDBValueEvent(address callerAddress, uint id, uint uuid, string key);\n\n  modifier requestExists(uint _id) {\n        require(pendingRequests[_id], \"Request not in pending list\");\n        _;\n  }\n\n    // value for a price pair like BTC/USDT\n  function getOracleValue(string calldata pair1, string calldata pair2) external returns (uint) {\n      uint id = _updateRequest();\n      emit GetOracleValueEvent(msg.sender, id, pair1, pair2);\n      return id;\n  }\n\n    // value of a particular key for a particular database uuid\n  function getDBValue(uint uuid, string calldata key) external returns (uint) {\n      uint id = _updateRequest();\n      emit GetDBValueEvent(msg.sender, id, uuid, key);\n      return id;\n  }\n\n  function setOracleValue(uint _latestPrice, address _callerAddress, uint _id) external onlyOwner requestExists(_id) {\n      delete pendingRequests[_id];\n\n    ICallerContract c = ICallerContract(_callerAddress);\n    c.callbackOracle(_latestPrice, _id);\n  }\n\n  function setDBValue(string calldata _value, address _callerAddress, uint _id) external onlyOwner requestExists(_id) {\n      delete pendingRequests[_id];\n\n      ICallerContract c = ICallerContract(_callerAddress);\n      c.callbackDB(_value, _id);\n  }\n\n\n  // Private Functions\n\n    function _updateRequest() internal returns (uint) {\n        randNonce++;\n        uint id = uint(keccak256(abi.encodePacked(block.timestamp, msg.sender, randNonce))) % modulus;\n        pendingRequests[id] = true;\n        return id;\n    }\n}",
  "sourcePath": "/home/realdiganta/Desktop/ethereum/gitcoin/bluezelle-ocw/contracts/BluezelleOracle.sol",
  "compiler": {
    "name": "solc",
    "version": "0.8.0+commit.c7dfd78e.Emscripten.clang"
  },
  "schemaVersion": "3.4.1",
  "updatedAt": "2021-07-28T12:05:44.840Z",
  "devdoc": {
    "kind": "dev",
    "methods": {
      "owner()": {
        "details": "Returns the address of the current owner."
      },
      "renounceOwnership()": {
        "details": "Leaves the contract without owner. It will not be possible to call `onlyOwner` functions anymore. Can only be called by the current owner. NOTE: Renouncing ownership will leave the contract without an owner, thereby removing any functionality that is only available to the owner."
      },
      "transferOwnership(address)": {
        "details": "Transfers ownership of the contract to a new account (`newOwner`). Can only be called by the current owner."
      }
    },
    "version": 1
  },
  "userdoc": {
    "kind": "user",
    "methods": {},
    "version": 1
  }
}