{
  "contractName": "CallerContract",
  "abi": [
    {
      "anonymous": false,
      "inputs": [
        {
          "indexed": false,
          "internalType": "string",
          "name": "value",
          "type": "string"
        },
        {
          "indexed": false,
          "internalType": "uint256",
          "name": "id",
          "type": "uint256"
        }
      ],
      "name": "DBValueUpdated",
      "type": "event"
    },
    {
      "anonymous": false,
      "inputs": [
        {
          "indexed": false,
          "internalType": "address",
          "name": "oracleAddress",
          "type": "address"
        }
      ],
      "name": "OracleAddressUpdated",
      "type": "event"
    },
    {
      "anonymous": false,
      "inputs": [
        {
          "indexed": true,
          "internalType": "address",
          "name": "previousOwner",
          "type": "address"
        },
        {
          "indexed": true,
          "internalType": "address",
          "name": "newOwner",
          "type": "address"
        }
      ],
      "name": "OwnershipTransferred",
      "type": "event"
    },
    {
      "anonymous": false,
      "inputs": [
        {
          "indexed": false,
          "internalType": "uint256",
          "name": "btcPrice",
          "type": "uint256"
        },
        {
          "indexed": false,
          "internalType": "uint256",
          "name": "id",
          "type": "uint256"
        }
      ],
      "name": "PriceUpdated",
      "type": "event"
    },
    {
      "anonymous": false,
      "inputs": [
        {
          "indexed": false,
          "internalType": "uint256",
          "name": "id",
          "type": "uint256"
        }
      ],
      "name": "ReceivedNewRequestId",
      "type": "event"
    },
    {
      "inputs": [],
      "name": "btcValue",
      "outputs": [
        {
          "internalType": "uint256",
          "name": "",
          "type": "uint256"
        }
      ],
      "stateMutability": "view",
      "type": "function"
    },
    {
      "inputs": [],
      "name": "dbValue",
      "outputs": [
        {
          "internalType": "string",
          "name": "",
          "type": "string"
        }
      ],
      "stateMutability": "view",
      "type": "function"
    },
    {
      "inputs": [],
      "name": "owner",
      "outputs": [
        {
          "internalType": "address",
          "name": "",
          "type": "address"
        }
      ],
      "stateMutability": "view",
      "type": "function"
    },
    {
      "inputs": [],
      "name": "renounceOwnership",
      "outputs": [],
      "stateMutability": "nonpayable",
      "type": "function"
    },
    {
      "inputs": [
        {
          "internalType": "address",
          "name": "newOwner",
          "type": "address"
        }
      ],
      "name": "transferOwnership",
      "outputs": [],
      "stateMutability": "nonpayable",
      "type": "function"
    },
    {
      "inputs": [
        {
          "internalType": "address",
          "name": "_oracle",
          "type": "address"
        }
      ],
      "name": "setOracleAddress",
      "outputs": [],
      "stateMutability": "nonpayable",
      "type": "function"
    },
    {
      "inputs": [],
      "name": "updateBtcValue",
      "outputs": [],
      "stateMutability": "nonpayable",
      "type": "function"
    },
    {
      "inputs": [
        {
          "internalType": "uint256",
          "name": "uuid",
          "type": "uint256"
        },
        {
          "internalType": "string",
          "name": "key",
          "type": "string"
        }
      ],
      "name": "updateDBValue",
      "outputs": [],
      "stateMutability": "nonpayable",
      "type": "function"
    },
    {
      "inputs": [
        {
          "internalType": "uint256",
          "name": "latestPrice",
          "type": "uint256"
        },
        {
          "internalType": "uint256",
          "name": "id",
          "type": "uint256"
        }
      ],
      "name": "callbackOracle",
      "outputs": [],
      "stateMutability": "nonpayable",
      "type": "function"
    },
    {
      "inputs": [
        {
          "internalType": "string",
          "name": "value",
          "type": "string"
        },
        {
          "internalType": "uint256",
          "name": "id",
          "type": "uint256"
        }
      ],
      "name": "callbackDB",
      "outputs": [],
      "stateMutability": "nonpayable",
      "type": "function"
    }
  ],
  "bytecode": "0x608060405234801561001057600080fd5b5061002d61002261003260201b60201c565b61003a60201b60201c565b6100fe565b600033905090565b60008060009054906101000a900473ffffffffffffffffffffffffffffffffffffffff169050816000806101000a81548173ffffffffffffffffffffffffffffffffffffffff021916908373ffffffffffffffffffffffffffffffffffffffff1602179055508173ffffffffffffffffffffffffffffffffffffffff168173ffffffffffffffffffffffffffffffffffffffff167f8be0079c531659141344cd1fd0a4f28419497f9722a3daafe3b4186f6b6457e060405160405180910390a35050565b6112b18061010d6000396000f3fe608060405234801561001057600080fd5b506004361061009e5760003560e01c806362049d4a1161006657806362049d4a1461011f578063715018a61461013d5780638da5cb5b14610147578063f2fde38b14610165578063f6ca6b71146101815761009e565b80630d2703be146100a35780630f2499e6146100c15780631485f010146100dd5780631769271d146100e75780634c69c00f14610103575b600080fd5b6100ab61019d565b6040516100b89190610ff6565b60405180910390f35b6100db60048036038101906100d69190610c6a565b61022b565b005b6100e5610392565b005b61010160048036038101906100fc9190610ceb565b6104a7565b005b61011d60048036038101906101189190610c41565b6105c5565b005b610127610741565b60405161013491906110cb565b60405180910390f35b610145610747565b005b61014f6107cf565b60405161015c9190610fa9565b60405180910390f35b61017f600480360381019061017a9190610c41565b6107f8565b005b61019b60048036038101906101969190610d43565b6108f0565b005b600580546101aa906111db565b80601f01602080910402602001604051908101604052809291908181526020018280546101d6906111db565b80156102235780601f106101f857610100808354040283529160200191610223565b820191906000526020600020905b81548152906001019060200180831161020657829003601f168201915b505050505081565b600260009054906101000a900473ffffffffffffffffffffffffffffffffffffffff1673ffffffffffffffffffffffffffffffffffffffff163373ffffffffffffffffffffffffffffffffffffffff16146102bb576040517f08c379a00000000000000000000000000000000000000000000000000000000081526004016102b2906110ab565b60405180910390fd5b806003600082815260200190815260200160002060009054906101000a900460ff1661031c576040517f08c379a000000000000000000000000000000000000000000000000000000000815260040161031390611018565b60405180910390fd5b83836005919061032d929190610b15565b506003600083815260200190815260200160002060006101000a81549060ff02191690557ff32785407c38deb2a4c12d1e44f3732cd45a0eb045a6578c41212c388be8a86884848460405161038493929190610fc4565b60405180910390a150505050565b6000600160009054906101000a900473ffffffffffffffffffffffffffffffffffffffff1673ffffffffffffffffffffffffffffffffffffffff1663b6b8e1006040518163ffffffff1660e01b81526004016103ed90611058565b602060405180830381600087803b15801561040757600080fd5b505af115801561041b573d6000803e3d6000fd5b505050506040513d601f19601f8201168201806040525081019061043f9190610cc2565b905060016003600083815260200190815260200160002060006101000a81548160ff0219169083151502179055507ff066da677a9f308761cbf5f2fdbed8a3a4caf0cf4f85b596a9797f1c378ea6498160405161049c91906110cb565b60405180910390a150565b6000600160009054906101000a900473ffffffffffffffffffffffffffffffffffffffff1673ffffffffffffffffffffffffffffffffffffffff16639fa45c1d8585856040518463ffffffff1660e01b8152600401610508939291906110e6565b602060405180830381600087803b15801561052257600080fd5b505af1158015610536573d6000803e3d6000fd5b505050506040513d601f19601f8201168201806040525081019061055a9190610cc2565b905060016003600083815260200190815260200160002060006101000a81548160ff0219169083151502179055507ff066da677a9f308761cbf5f2fdbed8a3a4caf0cf4f85b596a9797f1c378ea649816040516105b791906110cb565b60405180910390a150505050565b6105cd610a49565b73ffffffffffffffffffffffffffffffffffffffff166105eb6107cf565b73ffffffffffffffffffffffffffffffffffffffff1614610641576040517f08c379a00000000000000000000000000000000000000000000000000000000081526004016106389061108b565b60405180910390fd5b80600260006101000a81548173ffffffffffffffffffffffffffffffffffffffff021916908373ffffffffffffffffffffffffffffffffffffffff160217905550600260009054906101000a900473ffffffffffffffffffffffffffffffffffffffff16600160006101000a81548173ffffffffffffffffffffffffffffffffffffffff021916908373ffffffffffffffffffffffffffffffffffffffff1602179055507f107a9fafffb7ac890f780879e423760c9ffea8dcee8045681f40f542aede2cb8600260009054906101000a900473ffffffffffffffffffffffffffffffffffffffff166040516107369190610fa9565b60405180910390a150565b60045481565b61074f610a49565b73ffffffffffffffffffffffffffffffffffffffff1661076d6107cf565b73ffffffffffffffffffffffffffffffffffffffff16146107c3576040517f08c379a00000000000000000000000000000000000000000000000000000000081526004016107ba9061108b565b60405180910390fd5b6107cd6000610a51565b565b60008060009054906101000a900473ffffffffffffffffffffffffffffffffffffffff16905090565b610800610a49565b73ffffffffffffffffffffffffffffffffffffffff1661081e6107cf565b73ffffffffffffffffffffffffffffffffffffffff1614610874576040517f08c379a000000000000000000000000000000000000000000000000000000000815260040161086b9061108b565b60405180910390fd5b600073ffffffffffffffffffffffffffffffffffffffff168173ffffffffffffffffffffffffffffffffffffffff1614156108e4576040517f08c379a00000000000000000000000000000000000000000000000000000000081526004016108db90611038565b60405180910390fd5b6108ed81610a51565b50565b600260009054906101000a900473ffffffffffffffffffffffffffffffffffffffff1673ffffffffffffffffffffffffffffffffffffffff163373ffffffffffffffffffffffffffffffffffffffff1614610980576040517f08c379a0000000000000000000000000000000000000000000000000000000008152600401610977906110ab565b60405180910390fd5b806003600082815260200190815260200160002060009054906101000a900460ff166109e1576040517f08c379a00000000000000000000000000000000000000000000000000000000081526004016109d890611018565b60405180910390fd5b826004819055506003600083815260200190815260200160002060006101000a81549060ff02191690557f945c1c4e99aa89f648fbfe3df471b916f719e16d960fcec0737d4d56bd6968388383604051610a3c929190611118565b60405180910390a1505050565b600033905090565b60008060009054906101000a900473ffffffffffffffffffffffffffffffffffffffff169050816000806101000a81548173ffffffffffffffffffffffffffffffffffffffff021916908373ffffffffffffffffffffffffffffffffffffffff1602179055508173ffffffffffffffffffffffffffffffffffffffff168173ffffffffffffffffffffffffffffffffffffffff167f8be0079c531659141344cd1fd0a4f28419497f9722a3daafe3b4186f6b6457e060405160405180910390a35050565b828054610b21906111db565b90600052602060002090601f016020900481019282610b435760008555610b8a565b82601f10610b5c57803560ff1916838001178555610b8a565b82800160010185558215610b8a579182015b82811115610b89578235825591602001919060010190610b6e565b5b509050610b979190610b9b565b5090565b5b80821115610bb4576000816000905550600101610b9c565b5090565b600081359050610bc78161124d565b92915050565b60008083601f840112610bdf57600080fd5b8235905067ffffffffffffffff811115610bf857600080fd5b602083019150836001820283011115610c1057600080fd5b9250929050565b600081359050610c2681611264565b92915050565b600081519050610c3b81611264565b92915050565b600060208284031215610c5357600080fd5b6000610c6184828501610bb8565b91505092915050565b600080600060408486031215610c7f57600080fd5b600084013567ffffffffffffffff811115610c9957600080fd5b610ca586828701610bcd565b93509350506020610cb886828701610c17565b9150509250925092565b600060208284031215610cd457600080fd5b6000610ce284828501610c2c565b91505092915050565b600080600060408486031215610d0057600080fd5b6000610d0e86828701610c17565b935050602084013567ffffffffffffffff811115610d2b57600080fd5b610d3786828701610bcd565b92509250509250925092565b60008060408385031215610d5657600080fd5b6000610d6485828601610c17565b9250506020610d7585828601610c17565b9150509250929050565b610d888161115d565b82525050565b6000610d9a838561114c565b9350610da7838584611199565b610db08361123c565b840190509392505050565b6000610dc682611141565b610dd0818561114c565b9350610de08185602086016111a8565b610de98161123c565b840191505092915050565b6000610e0160138361114c565b91507f4e6f7420696e2070656e64696e67206c697374000000000000000000000000006000830152602082019050919050565b6000610e4160268361114c565b91507f4f776e61626c653a206e6577206f776e657220697320746865207a65726f206160008301527f64647265737300000000000000000000000000000000000000000000000000006020830152604082019050919050565b6000610ea760038361114c565b91507f62746300000000000000000000000000000000000000000000000000000000006000830152602082019050919050565b6000610ee760038361114c565b91507f75736400000000000000000000000000000000000000000000000000000000006000830152602082019050919050565b6000610f2760208361114c565b91507f4f776e61626c653a2063616c6c6572206973206e6f7420746865206f776e65726000830152602082019050919050565b6000610f67600e8361114c565b91507f4e6f7420617574686f72697a65640000000000000000000000000000000000006000830152602082019050919050565b610fa38161118f565b82525050565b6000602082019050610fbe6000830184610d7f565b92915050565b60006040820190508181036000830152610fdf818587610d8e565b9050610fee6020830184610f9a565b949350505050565b600060208201905081810360008301526110108184610dbb565b905092915050565b6000602082019050818103600083015261103181610df4565b9050919050565b6000602082019050818103600083015261105181610e34565b9050919050565b6000604082019050818103600083015261107181610e9a565b9050818103602083015261108481610eda565b9050919050565b600060208201905081810360008301526110a481610f1a565b9050919050565b600060208201905081810360008301526110c481610f5a565b9050919050565b60006020820190506110e06000830184610f9a565b92915050565b60006040820190506110fb6000830186610f9a565b818103602083015261110e818486610d8e565b9050949350505050565b600060408201905061112d6000830185610f9a565b61113a6020830184610f9a565b9392505050565b600081519050919050565b600082825260208201905092915050565b60006111688261116f565b9050919050565b600073ffffffffffffffffffffffffffffffffffffffff82169050919050565b6000819050919050565b82818337600083830152505050565b60005b838110156111c65780820151818401526020810190506111ab565b838111156111d5576000848401525b50505050565b600060028204905060018216806111f357607f821691505b602082108114156112075761120661120d565b5b50919050565b7f4e487b7100000000000000000000000000000000000000000000000000000000600052602260045260246000fd5b6000601f19601f8301169050919050565b6112568161115d565b811461126157600080fd5b50565b61126d8161118f565b811461127857600080fd5b5056fea26469706673582212206540117381a64c2a33d6f628ba9252f5ad7a72d364d25a744c7761f5530d81be64736f6c63430008000033",
  "immutableReferences": {},
  "source": "//SPDX-License-Identifier: GPL 3\npragma solidity ^0.8.0;\n\nimport \"./interfaces/IBluezelleOracle.sol\";\nimport \"./dependencies/Ownable.sol\";\nimport \"./interfaces/ICallerContract.sol\";\n\n\n/*\n This is just an example Caller Contract for the user's reference\n for interacting with the BluezelleOracle\n */\n\ncontract CallerContract is ICallerContract, Ownable {\n\n    IBluezelleOracle private oracleInstance;\n    address private oracleAddress;\n    mapping(uint => bool) myRequests;\n    uint public btcValue;\n    string public dbValue;\n\n    event OracleAddressUpdated(address oracleAddress);\n    event ReceivedNewRequestId(uint id);\n    event PriceUpdated(uint btcPrice, uint id);\n    event DBValueUpdated(string value, uint id);\n\n    modifier onlyOracle() {\n        require(msg.sender == oracleAddress, \"Not authorized\");\n    _;\n    }\n\n    modifier requestExists(uint id) {\n        require(myRequests[id], \"Not in pending list\");\n        _;\n    }\n\n    function setOracleAddress(address _oracle) public onlyOwner {\n        oracleAddress = _oracle;\n        oracleInstance = IBluezelleOracle(oracleAddress);\n        emit OracleAddressUpdated(oracleAddress);\n    }\n\n    // currently testing the value only for the btc/usd pair\n    function updateBtcValue() public {\n        uint id = oracleInstance.getOracleValue(\"btc\", \"usd\");\n        myRequests[id] = true;\n        emit ReceivedNewRequestId(id);\n    }\n\n    function updateDBValue(uint uuid, string calldata key) public {\n        uint id = oracleInstance.getDBValue(uuid, key);\n        myRequests[id] = true;\n        emit ReceivedNewRequestId(id);\n    }\n\n    function callbackOracle(uint latestPrice, uint id) public override onlyOracle requestExists(id) {\n        btcValue = latestPrice;\n        delete myRequests[id];\n        emit PriceUpdated(latestPrice, id);\n    }\n\n    function callbackDB(string calldata value, uint id) public override onlyOracle requestExists(id) {\n        dbValue = value;\n        delete myRequests[id];\n        emit DBValueUpdated(value, id);\n    }\n}\n",
  "sourcePath": "/home/realdiganta/Desktop/ethereum/gitcoin/bluezelle-ocw/contracts/CallerContract.sol",
  "compiler": {
    "name": "solc",
    "version": "0.8.0+commit.c7dfd78e.Emscripten.clang"
  },
  "schemaVersion": "3.4.1",
  "updatedAt": "2021-07-28T12:05:44.843Z",
  "devdoc": {
    "kind": "dev",
    "methods": {
      "owner()": {
        "details": "Returns the address of the current owner."
      },
      "renounceOwnership()": {
        "details": "Leaves the contract without owner. It will not be possible to call `onlyOwner` functions anymore. Can only be called by the current owner. NOTE: Renouncing ownership will leave the contract without an owner, thereby removing any functionality that is only available to the owner."
      },
      "transferOwnership(address)": {
        "details": "Transfers ownership of the contract to a new account (`newOwner`). Can only be called by the current owner."
      }
    },
    "version": 1
  },
  "userdoc": {
    "kind": "user",
    "methods": {},
    "version": 1
  }
}